{
  "contractName": "GamisoSwap",
  "abi": [
    {
      "inputs": [],
      "stateMutability": "nonpayable",
      "type": "constructor"
    },
    {
      "anonymous": false,
      "inputs": [
        {
          "indexed": true,
          "internalType": "address",
          "name": "beneficiary",
          "type": "address"
        },
        {
          "indexed": false,
          "internalType": "uint256",
          "name": "busdAmount",
          "type": "uint256"
        }
      ],
      "name": "BUSDExchanged",
      "type": "event"
    },
    {
      "anonymous": false,
      "inputs": [
        {
          "indexed": true,
          "internalType": "address",
          "name": "previousOwner",
          "type": "address"
        },
        {
          "indexed": true,
          "internalType": "address",
          "name": "newOwner",
          "type": "address"
        }
      ],
      "name": "OwnershipTransferred",
      "type": "event"
    },
    {
      "anonymous": false,
      "inputs": [
        {
          "indexed": false,
          "internalType": "uint256",
          "name": "rate",
          "type": "uint256"
        }
      ],
      "name": "RateChanged",
      "type": "event"
    },
    {
      "inputs": [],
      "name": "owner",
      "outputs": [
        {
          "internalType": "address",
          "name": "",
          "type": "address"
        }
      ],
      "stateMutability": "view",
      "type": "function"
    },
    {
      "inputs": [],
      "name": "renounceOwnership",
      "outputs": [],
      "stateMutability": "nonpayable",
      "type": "function"
    },
    {
      "inputs": [
        {
          "internalType": "address",
          "name": "newOwner",
          "type": "address"
        }
      ],
      "name": "transferOwnership",
      "outputs": [],
      "stateMutability": "nonpayable",
      "type": "function"
    },
    {
      "inputs": [
        {
          "internalType": "uint256",
          "name": "amount",
          "type": "uint256"
        }
      ],
      "name": "swapToBUSD",
      "outputs": [],
      "stateMutability": "nonpayable",
      "type": "function"
    },
    {
      "inputs": [],
      "name": "withdrawTokens",
      "outputs": [],
      "stateMutability": "nonpayable",
      "type": "function"
    },
    {
      "inputs": [],
      "name": "tokenBalance",
      "outputs": [],
      "stateMutability": "view",
      "type": "function"
    },
    {
      "inputs": [],
      "name": "token",
      "outputs": [
        {
          "internalType": "contract IERC20",
          "name": "",
          "type": "address"
        }
      ],
      "stateMutability": "view",
      "type": "function"
    },
    {
      "inputs": [],
      "name": "wallet",
      "outputs": [
        {
          "internalType": "address payable",
          "name": "",
          "type": "address"
        }
      ],
      "stateMutability": "view",
      "type": "function"
    },
    {
      "inputs": [],
      "name": "rate",
      "outputs": [
        {
          "internalType": "uint256",
          "name": "",
          "type": "uint256"
        }
      ],
      "stateMutability": "view",
      "type": "function"
    },
    {
      "inputs": [
        {
          "internalType": "uint256",
          "name": "r",
          "type": "uint256"
        }
      ],
      "name": "setRate",
      "outputs": [],
      "stateMutability": "nonpayable",
      "type": "function"
    },
    {
      "inputs": [],
      "name": "saleEnded",
      "outputs": [
        {
          "internalType": "bool",
          "name": "",
          "type": "bool"
        }
      ],
      "stateMutability": "view",
      "type": "function"
    },
    {
      "inputs": [
        {
          "internalType": "bool",
          "name": "end",
          "type": "bool"
        }
      ],
      "name": "setEnd",
      "outputs": [],
      "stateMutability": "nonpayable",
      "type": "function"
    },
    {
      "inputs": [],
      "name": "fees",
      "outputs": [
        {
          "internalType": "uint256",
          "name": "",
          "type": "uint256"
        }
      ],
      "stateMutability": "view",
      "type": "function"
    },
    {
      "inputs": [
        {
          "internalType": "uint256",
          "name": "fees_",
          "type": "uint256"
        }
      ],
      "name": "setFees",
      "outputs": [],
      "stateMutability": "nonpayable",
      "type": "function"
    },
    {
      "inputs": [],
      "name": "busdSold",
      "outputs": [
        {
          "internalType": "uint256",
          "name": "",
          "type": "uint256"
        }
      ],
      "stateMutability": "view",
      "type": "function"
    },
    {
      "inputs": [],
      "name": "remainingBusd",
      "outputs": [
        {
          "internalType": "uint256",
          "name": "",
          "type": "uint256"
        }
      ],
      "stateMutability": "view",
      "type": "function"
    }
  ],
  "bytecode": "0x60806040527355d398326f99059ff775485246999027b3197955600760016101000a81548173ffffffffffffffffffffffffffffffffffffffff021916908373ffffffffffffffffffffffffffffffffffffffff16021790555034801561006557600080fd5b50600160008190555061008a61007f61016460201b60201c565b61016c60201b60201c565b600b600481905550736800723f8b79f94129f1f35a54d21c776e244af0600360006101000a81548173ffffffffffffffffffffffffffffffffffffffff021916908373ffffffffffffffffffffffffffffffffffffffff1602179055507344eed676e0a7bd35f205e2ed37cd23edd6451744600260006101000a81548173ffffffffffffffffffffffffffffffffffffffff021916908373ffffffffffffffffffffffffffffffffffffffff16021790555060146006819055506000600760006101000a81548160ff021916908315150217905550610232565b600033905090565b6000600160009054906101000a900473ffffffffffffffffffffffffffffffffffffffff16905081600160006101000a81548173ffffffffffffffffffffffffffffffffffffffff021916908373ffffffffffffffffffffffffffffffffffffffff1602179055508173ffffffffffffffffffffffffffffffffffffffff168173ffffffffffffffffffffffffffffffffffffffff167f8be0079c531659141344cd1fd0a4f28419497f9722a3daafe3b4186f6b6457e060405160405180910390a35050565b611e06806102416000396000f3fe608060405234801561001057600080fd5b50600436106101005760003560e01c80639af1d35a11610097578063f0e3d1ba11610066578063f0e3d1ba1461022d578063f2fde38b14610249578063fc0c546a14610265578063fe90d6391461028357610100565b80639af1d35a146101c95780639b8906ae146101e75780639e1a4d1914610205578063ba1fef521461020f57610100565b8063521eb273116100d3578063521eb27314610179578063715018a6146101975780638d8f2adb146101a15780638da5cb5b146101ab57610100565b806312f6ad93146101055780632c4e722e1461012357806334fcf437146101415780633d18678e1461015d575b600080fd5b61010d61029f565b60405161011a91906111cf565b60405180910390f35b61012b610366565b60405161013891906111cf565b60405180910390f35b61015b6004803603810190610156919061121b565b610370565b005b6101776004803603810190610172919061121b565b6103bb565b005b6101816103cd565b60405161018e9190611289565b60405180910390f35b61019f6103f7565b005b6101a961040b565b005b6101b3610517565b6040516101c091906112c5565b60405180910390f35b6101d1610541565b6040516101de91906111cf565b60405180910390f35b6101ef61054b565b6040516101fc91906112fb565b60405180910390f35b61020d610562565b005b610217610601565b60405161022491906111cf565b60405180910390f35b61024760048036038101906102429190611342565b61060b565b005b610263600480360381019061025e919061139b565b610630565b005b61026d6106b3565b60405161027a9190611427565b60405180910390f35b61029d6004803603810190610298919061121b565b6106dd565b005b6000600760019054906101000a900473ffffffffffffffffffffffffffffffffffffffff1673ffffffffffffffffffffffffffffffffffffffff1663dd62ed3e600360009054906101000a900473ffffffffffffffffffffffffffffffffffffffff16306040518363ffffffff1660e01b8152600401610320929190611463565b602060405180830381865afa15801561033d573d6000803e3d6000fd5b505050506040513d601f19601f8201168201806040525081019061036191906114a1565b905090565b6000600454905090565b6103786109bd565b806004819055507f595a30f13a69b616c4d568e2a2b7875fdfe86e4300a049953c76ee278f8f3f106004546040516103b091906111cf565b60405180910390a150565b6103c36109bd565b8060068190555050565b6000600360009054906101000a900473ffffffffffffffffffffffffffffffffffffffff16905090565b6103ff6109bd565b6104096000610a3b565b565b610515600360009054906101000a900473ffffffffffffffffffffffffffffffffffffffff16600260009054906101000a900473ffffffffffffffffffffffffffffffffffffffff1673ffffffffffffffffffffffffffffffffffffffff166370a08231306040518263ffffffff1660e01b815260040161048c91906112c5565b602060405180830381865afa1580156104a9573d6000803e3d6000fd5b505050506040513d601f19601f820116820180604052508101906104cd91906114a1565b600260009054906101000a900473ffffffffffffffffffffffffffffffffffffffff1673ffffffffffffffffffffffffffffffffffffffff16610b019092919063ffffffff16565b565b6000600160009054906101000a900473ffffffffffffffffffffffffffffffffffffffff16905090565b6000600654905090565b6000600760009054906101000a900460ff16905090565b600260009054906101000a900473ffffffffffffffffffffffffffffffffffffffff1673ffffffffffffffffffffffffffffffffffffffff166370a08231306040518263ffffffff1660e01b81526004016105bd91906112c5565b602060405180830381865afa1580156105da573d6000803e3d6000fd5b505050506040513d601f19601f820116820180604052508101906105fe91906114a1565b50565b6000600554905090565b6106136109bd565b80600760006101000a81548160ff02191690831515021790555050565b6106386109bd565b600073ffffffffffffffffffffffffffffffffffffffff168173ffffffffffffffffffffffffffffffffffffffff16036106a7576040517f08c379a000000000000000000000000000000000000000000000000000000000815260040161069e90611551565b60405180910390fd5b6106b081610a3b565b50565b6000600260009054906101000a900473ffffffffffffffffffffffffffffffffffffffff16905090565b6106e5610b87565b60006106ef610bd6565b905060008203610734576040517f08c379a000000000000000000000000000000000000000000000000000000000815260040161072b906115bd565b60405180910390fd5b81600260009054906101000a900473ffffffffffffffffffffffffffffffffffffffff1673ffffffffffffffffffffffffffffffffffffffff166370a08231836040518263ffffffff1660e01b815260040161079091906112c5565b602060405180830381865afa1580156107ad573d6000803e3d6000fd5b505050506040513d601f19601f820116820180604052508101906107d191906114a1565b1015610812576040517f08c379a000000000000000000000000000000000000000000000000000000000815260040161080990611629565b60405180910390fd5b81600260009054906101000a900473ffffffffffffffffffffffffffffffffffffffff1673ffffffffffffffffffffffffffffffffffffffff1663dd62ed3e83306040518363ffffffff1660e01b8152600401610870929190611649565b602060405180830381865afa15801561088d573d6000803e3d6000fd5b505050506040513d601f19601f820116820180604052508101906108b191906114a1565b10156108f2576040517f08c379a00000000000000000000000000000000000000000000000000000000081526004016108e9906116be565b60405180910390fd5b60006108fd83610bde565b90506109098282610c0f565b610958823085600260009054906101000a900473ffffffffffffffffffffffffffffffffffffffff1673ffffffffffffffffffffffffffffffffffffffff16610d5f909392919063ffffffff16565b6109628282610de8565b8173ffffffffffffffffffffffffffffffffffffffff167f140c66f5d6bc607292f0c23e33a77a3903d17834a01460acd29bb3296af0db2d826040516109a891906111cf565b60405180910390a250506109ba610e30565b50565b6109c5610bd6565b73ffffffffffffffffffffffffffffffffffffffff166109e3610517565b73ffffffffffffffffffffffffffffffffffffffff1614610a39576040517f08c379a0000000000000000000000000000000000000000000000000000000008152600401610a309061172a565b60405180910390fd5b565b6000600160009054906101000a900473ffffffffffffffffffffffffffffffffffffffff16905081600160006101000a81548173ffffffffffffffffffffffffffffffffffffffff021916908373ffffffffffffffffffffffffffffffffffffffff1602179055508173ffffffffffffffffffffffffffffffffffffffff168173ffffffffffffffffffffffffffffffffffffffff167f8be0079c531659141344cd1fd0a4f28419497f9722a3daafe3b4186f6b6457e060405160405180910390a35050565b610b828363a9059cbb60e01b8484604051602401610b2092919061174a565b604051602081830303815290604052907bffffffffffffffffffffffffffffffffffffffffffffffffffffffff19166020820180517bffffffffffffffffffffffffffffffffffffffffffffffffffffffff8381831617835250505050610e3a565b505050565b600260005403610bcc576040517f08c379a0000000000000000000000000000000000000000000000000000000008152600401610bc3906117bf565b60405180910390fd5b6002600081905550565b600033905090565b6000610c086064610bfa60045485610f0190919063ffffffff16565b610f1790919063ffffffff16565b9050919050565b600760009054906101000a900460ff1615610c5f576040517f08c379a0000000000000000000000000000000000000000000000000000000008152600401610c569061182b565b60405180910390fd5b600073ffffffffffffffffffffffffffffffffffffffff168273ffffffffffffffffffffffffffffffffffffffff1603610cce576040517f08c379a0000000000000000000000000000000000000000000000000000000008152600401610cc590611897565b60405180910390fd5b60008103610d11576040517f08c379a0000000000000000000000000000000000000000000000000000000008152600401610d0890611903565b60405180910390fd5b80610d1a61029f565b1015610d5b576040517f08c379a0000000000000000000000000000000000000000000000000000000008152600401610d529061196f565b60405180910390fd5b5050565b610de2846323b872dd60e01b858585604051602401610d809392919061198f565b604051602081830303815290604052907bffffffffffffffffffffffffffffffffffffffffffffffffffffffff19166020820180517bffffffffffffffffffffffffffffffffffffffffffffffffffffffff8381831617835250505050610e3a565b50505050565b610e2c82610e27610e18612710610e0a60065487610f0190919063ffffffff16565b610f1790919063ffffffff16565b84610f2d90919063ffffffff16565b610f43565b5050565b6001600081905550565b6000610e9c826040518060400160405280602081526020017f5361666545524332303a206c6f772d6c6576656c2063616c6c206661696c65648152508573ffffffffffffffffffffffffffffffffffffffff16610fd39092919063ffffffff16565b9050600081511115610efc5780806020019051810190610ebc91906119db565b610efb576040517f08c379a0000000000000000000000000000000000000000000000000000000008152600401610ef290611a7a565b60405180910390fd5b5b505050565b60008183610f0f9190611ac9565b905092915050565b60008183610f259190611b3a565b905092915050565b60008183610f3b9190611b6b565b905092915050565b610fb4600360009054906101000a900473ffffffffffffffffffffffffffffffffffffffff168383600760019054906101000a900473ffffffffffffffffffffffffffffffffffffffff1673ffffffffffffffffffffffffffffffffffffffff16610d5f909392919063ffffffff16565b610fc981600554610feb90919063ffffffff16565b6005819055505050565b6060610fe28484600085611001565b90509392505050565b60008183610ff99190611b9f565b905092915050565b606082471015611046576040517f08c379a000000000000000000000000000000000000000000000000000000000815260040161103d90611c45565b60405180910390fd5b6000808673ffffffffffffffffffffffffffffffffffffffff16858760405161106f9190611cd6565b60006040518083038185875af1925050503d80600081146110ac576040519150601f19603f3d011682016040523d82523d6000602084013e6110b1565b606091505b50915091506110c2878383876110ce565b92505050949350505050565b60608315611130576000835103611128576110e885611143565b611127576040517f08c379a000000000000000000000000000000000000000000000000000000000815260040161111e90611d39565b60405180910390fd5b5b82905061113b565b61113a8383611166565b5b949350505050565b6000808273ffffffffffffffffffffffffffffffffffffffff163b119050919050565b6000825111156111795781518083602001fd5b806040517f08c379a00000000000000000000000000000000000000000000000000000000081526004016111ad9190611dae565b60405180910390fd5b6000819050919050565b6111c9816111b6565b82525050565b60006020820190506111e460008301846111c0565b92915050565b600080fd5b6111f8816111b6565b811461120357600080fd5b50565b600081359050611215816111ef565b92915050565b600060208284031215611231576112306111ea565b5b600061123f84828501611206565b91505092915050565b600073ffffffffffffffffffffffffffffffffffffffff82169050919050565b600061127382611248565b9050919050565b61128381611268565b82525050565b600060208201905061129e600083018461127a565b92915050565b60006112af82611248565b9050919050565b6112bf816112a4565b82525050565b60006020820190506112da60008301846112b6565b92915050565b60008115159050919050565b6112f5816112e0565b82525050565b600060208201905061131060008301846112ec565b92915050565b61131f816112e0565b811461132a57600080fd5b50565b60008135905061133c81611316565b92915050565b600060208284031215611358576113576111ea565b5b60006113668482850161132d565b91505092915050565b611378816112a4565b811461138357600080fd5b50565b6000813590506113958161136f565b92915050565b6000602082840312156113b1576113b06111ea565b5b60006113bf84828501611386565b91505092915050565b6000819050919050565b60006113ed6113e86113e384611248565b6113c8565b611248565b9050919050565b60006113ff826113d2565b9050919050565b6000611411826113f4565b9050919050565b61142181611406565b82525050565b600060208201905061143c6000830184611418565b92915050565b600061144d826113f4565b9050919050565b61145d81611442565b82525050565b60006040820190506114786000830185611454565b61148560208301846112b6565b9392505050565b60008151905061149b816111ef565b92915050565b6000602082840312156114b7576114b66111ea565b5b60006114c58482850161148c565b91505092915050565b600082825260208201905092915050565b7f4f776e61626c653a206e6577206f776e657220697320746865207a65726f206160008201527f6464726573730000000000000000000000000000000000000000000000000000602082015250565b600061153b6026836114ce565b9150611546826114df565b604082019050919050565b6000602082019050818103600083015261156a8161152e565b9050919050565b7f416d6f756e742069732030000000000000000000000000000000000000000000600082015250565b60006115a7600b836114ce565b91506115b282611571565b602082019050919050565b600060208201905081810360008301526115d68161159a565b9050919050565b7f4e6f7420456e6f7567682042616c616e63650000000000000000000000000000600082015250565b60006116136012836114ce565b915061161e826115dd565b602082019050919050565b6000602082019050818103600083015261164281611606565b9050919050565b600060408201905061165e60008301856112b6565b61166b60208301846112b6565b9392505050565b7f4e6f7420456e6f75676820416c6c6f77616e6365000000000000000000000000600082015250565b60006116a86014836114ce565b91506116b382611672565b602082019050919050565b600060208201905081810360008301526116d78161169b565b9050919050565b7f4f776e61626c653a2063616c6c6572206973206e6f7420746865206f776e6572600082015250565b60006117146020836114ce565b915061171f826116de565b602082019050919050565b6000602082019050818103600083015261174381611707565b9050919050565b600060408201905061175f60008301856112b6565b61176c60208301846111c0565b9392505050565b7f5265656e7472616e637947756172643a207265656e7472616e742063616c6c00600082015250565b60006117a9601f836114ce565b91506117b482611773565b602082019050919050565b600060208201905081810360008301526117d88161179c565b9050919050565b7f53616c6520456e64656400000000000000000000000000000000000000000000600082015250565b6000611815600a836114ce565b9150611820826117df565b602082019050919050565b6000602082019050818103600083015261184481611808565b9050919050565b7f427579657220697320746865207a65726f206164647265737300000000000000600082015250565b60006118816019836114ce565b915061188c8261184b565b602082019050919050565b600060208201905081810360008301526118b081611874565b9050919050565b7f53616c6520746f6b656e20616d6f756e74206973203000000000000000000000600082015250565b60006118ed6016836114ce565b91506118f8826118b7565b602082019050919050565b6000602082019050818103600083015261191c816118e0565b9050919050565b7f4c65737320425553442072656d61696e696e6700000000000000000000000000600082015250565b60006119596013836114ce565b915061196482611923565b602082019050919050565b600060208201905081810360008301526119888161194c565b9050919050565b60006060820190506119a460008301866112b6565b6119b160208301856112b6565b6119be60408301846111c0565b949350505050565b6000815190506119d581611316565b92915050565b6000602082840312156119f1576119f06111ea565b5b60006119ff848285016119c6565b91505092915050565b7f5361666545524332303a204552433230206f7065726174696f6e20646964206e60008201527f6f74207375636365656400000000000000000000000000000000000000000000602082015250565b6000611a64602a836114ce565b9150611a6f82611a08565b604082019050919050565b60006020820190508181036000830152611a9381611a57565b9050919050565b7f4e487b7100000000000000000000000000000000000000000000000000000000600052601160045260246000fd5b6000611ad4826111b6565b9150611adf836111b6565b9250828202611aed816111b6565b91508282048414831517611b0457611b03611a9a565b5b5092915050565b7f4e487b7100000000000000000000000000000000000000000000000000000000600052601260045260246000fd5b6000611b45826111b6565b9150611b50836111b6565b925082611b6057611b5f611b0b565b5b828204905092915050565b6000611b76826111b6565b9150611b81836111b6565b9250828203905081811115611b9957611b98611a9a565b5b92915050565b6000611baa826111b6565b9150611bb5836111b6565b9250828201905080821115611bcd57611bcc611a9a565b5b92915050565b7f416464726573733a20696e73756666696369656e742062616c616e636520666f60008201527f722063616c6c0000000000000000000000000000000000000000000000000000602082015250565b6000611c2f6026836114ce565b9150611c3a82611bd3565b604082019050919050565b60006020820190508181036000830152611c5e81611c22565b9050919050565b600081519050919050565b600081905092915050565b60005b83811015611c99578082015181840152602081019050611c7e565b60008484015250505050565b6000611cb082611c65565b611cba8185611c70565b9350611cca818560208601611c7b565b80840191505092915050565b6000611ce28284611ca5565b915081905092915050565b7f416464726573733a2063616c6c20746f206e6f6e2d636f6e7472616374000000600082015250565b6000611d23601d836114ce565b9150611d2e82611ced565b602082019050919050565b60006020820190508181036000830152611d5281611d16565b9050919050565b600081519050919050565b6000601f19601f8301169050919050565b6000611d8082611d59565b611d8a81856114ce565b9350611d9a818560208601611c7b565b611da381611d64565b840191505092915050565b60006020820190508181036000830152611dc88184611d75565b90509291505056fea264697066735822122077e8cde3050148d55af658e63712f596377955d3d3d461a57efecca0968f019664736f6c63430008130033",
  "immutableReferences": {},
  "source": "// SPDX-License-Identifier: MIT\r\n\r\npragma solidity ^0.8.19;\r\n\r\nimport \"@openzeppelin/contracts/token/ERC20/IERC20.sol\";\r\nimport \"@openzeppelin/contracts/token/ERC20/utils/SafeERC20.sol\";\r\nimport \"@openzeppelin/contracts/security/ReentrancyGuard.sol\";\r\nimport \"@openzeppelin/contracts/access/Ownable.sol\";\r\nimport \"@openzeppelin/contracts/utils/Context.sol\";\r\nimport \"@openzeppelin/contracts/utils/math/SafeMath.sol\";\r\n\r\ncontract GamisoSwap is Context, ReentrancyGuard, Ownable {\r\n    using SafeMath for uint256;\r\n    using SafeERC20 for IERC20;\r\n\r\n    IERC20 private _token;\r\n    address payable private _wallet;\r\n    uint256 private _rate;\r\n    uint256 private _busdSold;\r\n    uint256 private _fees;\r\n    bool private _end;\r\n    // IERC20 BUSD;\r\n    // IERC20 BUSD = IERC20(0xe9e7CEA3DedcA5984780Bafc599bD69ADd087D56); //Mainnet\r\n    IERC20 USDT = IERC20(0x55d398326f99059fF775485246999027B3197955); //Mainnet\r\n    // IERC20 BUSD = IERC20(0xE0dFffc2E01A7f051069649aD4eb3F518430B6a4); // Testnet\r\n\r\n    event BUSDExchanged(address indexed beneficiary, uint256 busdAmount);\r\n    event RateChanged(uint256 rate);\r\n\r\n    // constructor(address busd_, address erc, address wallet_) {\r\n    constructor() {\r\n        // BUSD = IERC20(0xea9579a69EbD08217926B364E8c8de513FDf8E23); \r\n        _rate = 11;\r\n        _wallet = payable(0x6800723F8B79F94129F1F35a54d21c776e244AF0);\r\n        _token = IERC20(0x44eED676e0a7bD35f205E2Ed37cd23EDD6451744);\r\n        _fees = 20;\r\n        _end = false;\r\n    }\r\n\r\n    function swapToBUSD(uint256 amount) public nonReentrant {\r\n        address beneficiary = _msgSender();\r\n        require(amount != 0, \"Amount is 0\");\r\n        require(_token.balanceOf(beneficiary) >= amount, \"Not Enough Balance\");\r\n        require(\r\n            _token.allowance(beneficiary, address(this)) >= amount,\r\n            \"Not Enough Allowance\"\r\n        );\r\n        uint256 busdAmount = _getBusdAmount(amount);\r\n        _preValidatePurchase(beneficiary, busdAmount);\r\n        _token.safeTransferFrom(beneficiary, address(this), amount);\r\n        _processPurchase(beneficiary, busdAmount);\r\n        emit BUSDExchanged(beneficiary, busdAmount);\r\n    }\r\n\r\n    function _getBusdAmount(uint256 amount) internal view returns (uint256) {\r\n        return amount.mul(_rate).div(100);\r\n    }\r\n\r\n    function _preValidatePurchase(address beneficiary, uint256 busdAmount)\r\n        internal\r\n        view\r\n    {\r\n        require(!_end, \"Sale Ended\");\r\n        require(beneficiary != address(0), \"Buyer is the zero address\");\r\n        require(busdAmount != 0, \"Sale token amount is 0\");\r\n        require(remainingBusd() >= busdAmount, \"Less BUSD remaining\");\r\n    }\r\n\r\n    function _processPurchase(address beneficiary, uint256 busdAmount)\r\n        internal\r\n    {\r\n        _deliverBUSD(beneficiary, busdAmount.sub(busdAmount.mul(_fees).div(10000)));\r\n    }\r\n\r\n    function _deliverBUSD(address beneficiary, uint256 busdAmount) internal {\r\n        USDT.safeTransferFrom(_wallet, beneficiary, busdAmount);\r\n        _busdSold = _busdSold.add(busdAmount);\r\n    }\r\n\r\n    function withdrawTokens() external {\r\n        _token.safeTransfer(_wallet, _token.balanceOf(address(this)));\r\n    }\r\n    function tokenBalance() public view {\r\n        _token.balanceOf(address(this));\r\n    }\r\n\r\n    function token() public view returns (IERC20) {\r\n        return _token;\r\n    }\r\n\r\n    function wallet() public view returns (address payable) {\r\n        return _wallet;\r\n    }\r\n\r\n    function rate() public view returns (uint256) {\r\n        return _rate;\r\n    }\r\n\r\n    function setRate(uint256 r) public onlyOwner {\r\n        _rate = r;\r\n        emit RateChanged(_rate);\r\n    }\r\n\r\n    function saleEnded() public view returns (bool) {\r\n        return _end;\r\n    }\r\n\r\n    function setEnd(bool end) external onlyOwner {\r\n        _end = end;\r\n    }\r\n    function fees() public view returns (uint256) {\r\n        return _fees;\r\n    }\r\n\r\n    function setFees(uint256 fees_) external onlyOwner {\r\n        _fees = fees_;\r\n    }\r\n\r\n    function busdSold() public view returns (uint256) {\r\n        return _busdSold;\r\n    }\r\n\r\n    function remainingBusd() public view returns (uint256) {\r\n        return USDT.allowance(_wallet, address(this));\r\n    }\r\n}\r\n",
  "sourcePath": "C:\\Users\\suraj\\Documents\\code\\gamiso-swap\\contracts\\GamisoSwap.sol",
  "compiler": {
    "name": "solc",
    "version": "0.8.19+commit.7dd6d404.Emscripten.clang"
  },
  "schemaVersion": "3.4.13",
  "updatedAt": "2023-04-26T12:06:25.694Z",
  "devdoc": {
    "kind": "dev",
    "methods": {
      "owner()": {
        "details": "Returns the address of the current owner."
      },
      "renounceOwnership()": {
        "details": "Leaves the contract without owner. It will not be possible to call `onlyOwner` functions anymore. Can only be called by the current owner. NOTE: Renouncing ownership will leave the contract without an owner, thereby removing any functionality that is only available to the owner."
      },
      "transferOwnership(address)": {
        "details": "Transfers ownership of the contract to a new account (`newOwner`). Can only be called by the current owner."
      }
    },
    "version": 1
  },
  "userdoc": {
    "kind": "user",
    "methods": {},
    "version": 1
  }
}