{
  "contractName": "Swap",
  "abi": [
    {
      "inputs": [
        {
          "internalType": "address",
          "name": "busd_",
          "type": "address"
        },
        {
          "internalType": "address",
          "name": "erc",
          "type": "address"
        },
        {
          "internalType": "address",
          "name": "wallet_",
          "type": "address"
        }
      ],
      "stateMutability": "nonpayable",
      "type": "constructor"
    },
    {
      "anonymous": false,
      "inputs": [
        {
          "indexed": true,
          "internalType": "address",
          "name": "beneficiary",
          "type": "address"
        },
        {
          "indexed": false,
          "internalType": "uint256",
          "name": "busdAmount",
          "type": "uint256"
        }
      ],
      "name": "BUSDExchanged",
      "type": "event"
    },
    {
      "anonymous": false,
      "inputs": [
        {
          "indexed": true,
          "internalType": "address",
          "name": "previousOwner",
          "type": "address"
        },
        {
          "indexed": true,
          "internalType": "address",
          "name": "newOwner",
          "type": "address"
        }
      ],
      "name": "OwnershipTransferred",
      "type": "event"
    },
    {
      "anonymous": false,
      "inputs": [
        {
          "indexed": false,
          "internalType": "uint256",
          "name": "rate",
          "type": "uint256"
        }
      ],
      "name": "RateChanged",
      "type": "event"
    },
    {
      "inputs": [],
      "name": "owner",
      "outputs": [
        {
          "internalType": "address",
          "name": "",
          "type": "address"
        }
      ],
      "stateMutability": "view",
      "type": "function"
    },
    {
      "inputs": [],
      "name": "renounceOwnership",
      "outputs": [],
      "stateMutability": "nonpayable",
      "type": "function"
    },
    {
      "inputs": [
        {
          "internalType": "address",
          "name": "newOwner",
          "type": "address"
        }
      ],
      "name": "transferOwnership",
      "outputs": [],
      "stateMutability": "nonpayable",
      "type": "function"
    },
    {
      "inputs": [
        {
          "internalType": "uint256",
          "name": "amount",
          "type": "uint256"
        }
      ],
      "name": "swapToBUSD",
      "outputs": [],
      "stateMutability": "nonpayable",
      "type": "function"
    },
    {
      "inputs": [],
      "name": "forwardBUSD",
      "outputs": [],
      "stateMutability": "nonpayable",
      "type": "function"
    },
    {
      "inputs": [],
      "name": "token",
      "outputs": [
        {
          "internalType": "contract IERC20",
          "name": "",
          "type": "address"
        }
      ],
      "stateMutability": "view",
      "type": "function"
    },
    {
      "inputs": [],
      "name": "wallet",
      "outputs": [
        {
          "internalType": "address payable",
          "name": "",
          "type": "address"
        }
      ],
      "stateMutability": "view",
      "type": "function"
    },
    {
      "inputs": [],
      "name": "rate",
      "outputs": [
        {
          "internalType": "uint256",
          "name": "",
          "type": "uint256"
        }
      ],
      "stateMutability": "view",
      "type": "function"
    },
    {
      "inputs": [
        {
          "internalType": "uint256",
          "name": "r",
          "type": "uint256"
        }
      ],
      "name": "setRate",
      "outputs": [],
      "stateMutability": "nonpayable",
      "type": "function"
    },
    {
      "inputs": [],
      "name": "saleEnded",
      "outputs": [
        {
          "internalType": "bool",
          "name": "",
          "type": "bool"
        }
      ],
      "stateMutability": "view",
      "type": "function"
    },
    {
      "inputs": [
        {
          "internalType": "bool",
          "name": "end",
          "type": "bool"
        }
      ],
      "name": "setEnd",
      "outputs": [],
      "stateMutability": "nonpayable",
      "type": "function"
    },
    {
      "inputs": [],
      "name": "fees",
      "outputs": [
        {
          "internalType": "uint256",
          "name": "",
          "type": "uint256"
        }
      ],
      "stateMutability": "view",
      "type": "function"
    },
    {
      "inputs": [
        {
          "internalType": "uint256",
          "name": "fees_",
          "type": "uint256"
        }
      ],
      "name": "setFees",
      "outputs": [],
      "stateMutability": "nonpayable",
      "type": "function"
    },
    {
      "inputs": [],
      "name": "tokensSold",
      "outputs": [
        {
          "internalType": "uint256",
          "name": "",
          "type": "uint256"
        }
      ],
      "stateMutability": "view",
      "type": "function"
    },
    {
      "inputs": [],
      "name": "remainingBusd",
      "outputs": [
        {
          "internalType": "uint256",
          "name": "",
          "type": "uint256"
        }
      ],
      "stateMutability": "view",
      "type": "function"
    }
  ],
  "bytecode": "0x60806040523480156200001157600080fd5b50604051620020543803806200205483398181016040528101906200003791906200028e565b60016000819055506200005f620000536200015660201b60201c565b6200015e60201b60201c565b82600760016101000a81548173ffffffffffffffffffffffffffffffffffffffff021916908373ffffffffffffffffffffffffffffffffffffffff160217905550600a60048190555080600360006101000a81548173ffffffffffffffffffffffffffffffffffffffff021916908373ffffffffffffffffffffffffffffffffffffffff16021790555081600260006101000a81548173ffffffffffffffffffffffffffffffffffffffff021916908373ffffffffffffffffffffffffffffffffffffffff16021790555060146006819055506000600760006101000a81548160ff021916908315150217905550505050620002ea565b600033905090565b6000600160009054906101000a900473ffffffffffffffffffffffffffffffffffffffff16905081600160006101000a81548173ffffffffffffffffffffffffffffffffffffffff021916908373ffffffffffffffffffffffffffffffffffffffff1602179055508173ffffffffffffffffffffffffffffffffffffffff168173ffffffffffffffffffffffffffffffffffffffff167f8be0079c531659141344cd1fd0a4f28419497f9722a3daafe3b4186f6b6457e060405160405180910390a35050565b600080fd5b600073ffffffffffffffffffffffffffffffffffffffff82169050919050565b6000620002568262000229565b9050919050565b620002688162000249565b81146200027457600080fd5b50565b60008151905062000288816200025d565b92915050565b600080600060608486031215620002aa57620002a962000224565b5b6000620002ba8682870162000277565b9350506020620002cd8682870162000277565b9250506040620002e08682870162000277565b9150509250925092565b611d5a80620002fa6000396000f3fe608060405234801561001057600080fd5b50600436106100f55760003560e01c80638da5cb5b11610097578063f0e3d1ba11610066578063f0e3d1ba14610218578063f2fde38b14610234578063fc0c546a14610250578063fe90d6391461026e576100f5565b80638da5cb5b146101b45780639af1d35a146101d25780639b8906ae146101f0578063a4934b141461020e576100f5565b80633d18678e116100d35780633d18678e14610152578063518ab2a81461016e578063521eb2731461018c578063715018a6146101aa576100f5565b806312f6ad93146100fa5780632c4e722e1461011857806334fcf43714610136575b600080fd5b61010261028a565b60405161010f9190611123565b60405180910390f35b610120610351565b60405161012d9190611123565b60405180910390f35b610150600480360381019061014b919061116f565b61035b565b005b61016c6004803603810190610167919061116f565b6103a6565b005b6101766103b8565b6040516101839190611123565b60405180910390f35b6101946103c2565b6040516101a191906111dd565b60405180910390f35b6101b26103ec565b005b6101bc610400565b6040516101c99190611219565b60405180910390f35b6101da61042a565b6040516101e79190611123565b60405180910390f35b6101f8610434565b604051610205919061124f565b60405180910390f35b61021661044b565b005b610232600480360381019061022d9190611296565b610557565b005b61024e600480360381019061024991906112ef565b61057c565b005b6102586105ff565b604051610265919061137b565b60405180910390f35b6102886004803603810190610283919061116f565b610629565b005b6000600760019054906101000a900473ffffffffffffffffffffffffffffffffffffffff1673ffffffffffffffffffffffffffffffffffffffff1663dd62ed3e600360009054906101000a900473ffffffffffffffffffffffffffffffffffffffff16306040518363ffffffff1660e01b815260040161030b9291906113b7565b602060405180830381865afa158015610328573d6000803e3d6000fd5b505050506040513d601f19601f8201168201806040525081019061034c91906113f5565b905090565b6000600454905090565b610363610911565b806004819055507f595a30f13a69b616c4d568e2a2b7875fdfe86e4300a049953c76ee278f8f3f1060045460405161039b9190611123565b60405180910390a150565b6103ae610911565b8060068190555050565b6000600554905090565b6000600360009054906101000a900473ffffffffffffffffffffffffffffffffffffffff16905090565b6103f4610911565b6103fe600061098f565b565b6000600160009054906101000a900473ffffffffffffffffffffffffffffffffffffffff16905090565b6000600654905090565b6000600760009054906101000a900460ff16905090565b610555600360009054906101000a900473ffffffffffffffffffffffffffffffffffffffff16600760019054906101000a900473ffffffffffffffffffffffffffffffffffffffff1673ffffffffffffffffffffffffffffffffffffffff166370a08231306040518263ffffffff1660e01b81526004016104cc9190611219565b602060405180830381865afa1580156104e9573d6000803e3d6000fd5b505050506040513d601f19601f8201168201806040525081019061050d91906113f5565b600760019054906101000a900473ffffffffffffffffffffffffffffffffffffffff1673ffffffffffffffffffffffffffffffffffffffff16610a559092919063ffffffff16565b565b61055f610911565b80600760006101000a81548160ff02191690831515021790555050565b610584610911565b600073ffffffffffffffffffffffffffffffffffffffff168173ffffffffffffffffffffffffffffffffffffffff16036105f3576040517f08c379a00000000000000000000000000000000000000000000000000000000081526004016105ea906114a5565b60405180910390fd5b6105fc8161098f565b50565b6000600260009054906101000a900473ffffffffffffffffffffffffffffffffffffffff16905090565b610631610adb565b600061063b610b2a565b905060008203610680576040517f08c379a000000000000000000000000000000000000000000000000000000000815260040161067790611511565b60405180910390fd5b81600260009054906101000a900473ffffffffffffffffffffffffffffffffffffffff1673ffffffffffffffffffffffffffffffffffffffff166370a08231836040518263ffffffff1660e01b81526004016106dc9190611219565b602060405180830381865afa1580156106f9573d6000803e3d6000fd5b505050506040513d601f19601f8201168201806040525081019061071d91906113f5565b101561075e576040517f08c379a00000000000000000000000000000000000000000000000000000000081526004016107559061157d565b60405180910390fd5b81600260009054906101000a900473ffffffffffffffffffffffffffffffffffffffff1673ffffffffffffffffffffffffffffffffffffffff1663dd62ed3e83306040518363ffffffff1660e01b81526004016107bc92919061159d565b602060405180830381865afa1580156107d9573d6000803e3d6000fd5b505050506040513d601f19601f820116820180604052508101906107fd91906113f5565b101561083e576040517f08c379a000000000000000000000000000000000000000000000000000000000815260040161083590611612565b60405180910390fd5b600061084983610b32565b90506108558282610b63565b6108a4823085600260009054906101000a900473ffffffffffffffffffffffffffffffffffffffff1673ffffffffffffffffffffffffffffffffffffffff16610cb3909392919063ffffffff16565b6108ae8282610d3c565b8173ffffffffffffffffffffffffffffffffffffffff167f140c66f5d6bc607292f0c23e33a77a3903d17834a01460acd29bb3296af0db2d826040516108f49190611123565b60405180910390a261090461044b565b505061090e610d84565b50565b610919610b2a565b73ffffffffffffffffffffffffffffffffffffffff16610937610400565b73ffffffffffffffffffffffffffffffffffffffff161461098d576040517f08c379a00000000000000000000000000000000000000000000000000000000081526004016109849061167e565b60405180910390fd5b565b6000600160009054906101000a900473ffffffffffffffffffffffffffffffffffffffff16905081600160006101000a81548173ffffffffffffffffffffffffffffffffffffffff021916908373ffffffffffffffffffffffffffffffffffffffff1602179055508173ffffffffffffffffffffffffffffffffffffffff168173ffffffffffffffffffffffffffffffffffffffff167f8be0079c531659141344cd1fd0a4f28419497f9722a3daafe3b4186f6b6457e060405160405180910390a35050565b610ad68363a9059cbb60e01b8484604051602401610a7492919061169e565b604051602081830303815290604052907bffffffffffffffffffffffffffffffffffffffffffffffffffffffff19166020820180517bffffffffffffffffffffffffffffffffffffffffffffffffffffffff8381831617835250505050610d8e565b505050565b600260005403610b20576040517f08c379a0000000000000000000000000000000000000000000000000000000008152600401610b1790611713565b60405180910390fd5b6002600081905550565b600033905090565b6000610b5c6064610b4e60045485610e5590919063ffffffff16565b610e6b90919063ffffffff16565b9050919050565b600760009054906101000a900460ff1615610bb3576040517f08c379a0000000000000000000000000000000000000000000000000000000008152600401610baa9061177f565b60405180910390fd5b600073ffffffffffffffffffffffffffffffffffffffff168273ffffffffffffffffffffffffffffffffffffffff1603610c22576040517f08c379a0000000000000000000000000000000000000000000000000000000008152600401610c19906117eb565b60405180910390fd5b60008103610c65576040517f08c379a0000000000000000000000000000000000000000000000000000000008152600401610c5c90611857565b60405180910390fd5b80610c6e61028a565b1015610caf576040517f08c379a0000000000000000000000000000000000000000000000000000000008152600401610ca6906118c3565b60405180910390fd5b5050565b610d36846323b872dd60e01b858585604051602401610cd4939291906118e3565b604051602081830303815290604052907bffffffffffffffffffffffffffffffffffffffffffffffffffffffff19166020820180517bffffffffffffffffffffffffffffffffffffffffffffffffffffffff8381831617835250505050610d8e565b50505050565b610d8082610d7b610d6c612710610d5e60065487610e5590919063ffffffff16565b610e6b90919063ffffffff16565b84610e8190919063ffffffff16565b610e97565b5050565b6001600081905550565b6000610df0826040518060400160405280602081526020017f5361666545524332303a206c6f772d6c6576656c2063616c6c206661696c65648152508573ffffffffffffffffffffffffffffffffffffffff16610f279092919063ffffffff16565b9050600081511115610e505780806020019051810190610e10919061192f565b610e4f576040517f08c379a0000000000000000000000000000000000000000000000000000000008152600401610e46906119ce565b60405180910390fd5b5b505050565b60008183610e639190611a1d565b905092915050565b60008183610e799190611a8e565b905092915050565b60008183610e8f9190611abf565b905092915050565b610f08600360009054906101000a900473ffffffffffffffffffffffffffffffffffffffff168383600760019054906101000a900473ffffffffffffffffffffffffffffffffffffffff1673ffffffffffffffffffffffffffffffffffffffff16610cb3909392919063ffffffff16565b610f1d81600554610f3f90919063ffffffff16565b6005819055505050565b6060610f368484600085610f55565b90509392505050565b60008183610f4d9190611af3565b905092915050565b606082471015610f9a576040517f08c379a0000000000000000000000000000000000000000000000000000000008152600401610f9190611b99565b60405180910390fd5b6000808673ffffffffffffffffffffffffffffffffffffffff168587604051610fc39190611c2a565b60006040518083038185875af1925050503d8060008114611000576040519150601f19603f3d011682016040523d82523d6000602084013e611005565b606091505b509150915061101687838387611022565b92505050949350505050565b6060831561108457600083510361107c5761103c85611097565b61107b576040517f08c379a000000000000000000000000000000000000000000000000000000000815260040161107290611c8d565b60405180910390fd5b5b82905061108f565b61108e83836110ba565b5b949350505050565b6000808273ffffffffffffffffffffffffffffffffffffffff163b119050919050565b6000825111156110cd5781518083602001fd5b806040517f08c379a00000000000000000000000000000000000000000000000000000000081526004016111019190611d02565b60405180910390fd5b6000819050919050565b61111d8161110a565b82525050565b60006020820190506111386000830184611114565b92915050565b600080fd5b61114c8161110a565b811461115757600080fd5b50565b60008135905061116981611143565b92915050565b6000602082840312156111855761118461113e565b5b60006111938482850161115a565b91505092915050565b600073ffffffffffffffffffffffffffffffffffffffff82169050919050565b60006111c78261119c565b9050919050565b6111d7816111bc565b82525050565b60006020820190506111f260008301846111ce565b92915050565b60006112038261119c565b9050919050565b611213816111f8565b82525050565b600060208201905061122e600083018461120a565b92915050565b60008115159050919050565b61124981611234565b82525050565b60006020820190506112646000830184611240565b92915050565b61127381611234565b811461127e57600080fd5b50565b6000813590506112908161126a565b92915050565b6000602082840312156112ac576112ab61113e565b5b60006112ba84828501611281565b91505092915050565b6112cc816111f8565b81146112d757600080fd5b50565b6000813590506112e9816112c3565b92915050565b6000602082840312156113055761130461113e565b5b6000611313848285016112da565b91505092915050565b6000819050919050565b600061134161133c6113378461119c565b61131c565b61119c565b9050919050565b600061135382611326565b9050919050565b600061136582611348565b9050919050565b6113758161135a565b82525050565b6000602082019050611390600083018461136c565b92915050565b60006113a182611348565b9050919050565b6113b181611396565b82525050565b60006040820190506113cc60008301856113a8565b6113d9602083018461120a565b9392505050565b6000815190506113ef81611143565b92915050565b60006020828403121561140b5761140a61113e565b5b6000611419848285016113e0565b91505092915050565b600082825260208201905092915050565b7f4f776e61626c653a206e6577206f776e657220697320746865207a65726f206160008201527f6464726573730000000000000000000000000000000000000000000000000000602082015250565b600061148f602683611422565b915061149a82611433565b604082019050919050565b600060208201905081810360008301526114be81611482565b9050919050565b7f416d6f756e742069732030000000000000000000000000000000000000000000600082015250565b60006114fb600b83611422565b9150611506826114c5565b602082019050919050565b6000602082019050818103600083015261152a816114ee565b9050919050565b7f4e6f7420456e6f7567682042616c616e63650000000000000000000000000000600082015250565b6000611567601283611422565b915061157282611531565b602082019050919050565b600060208201905081810360008301526115968161155a565b9050919050565b60006040820190506115b2600083018561120a565b6115bf602083018461120a565b9392505050565b7f4e6f7420456e6f75676820416c6c6f77616e6365000000000000000000000000600082015250565b60006115fc601483611422565b9150611607826115c6565b602082019050919050565b6000602082019050818103600083015261162b816115ef565b9050919050565b7f4f776e61626c653a2063616c6c6572206973206e6f7420746865206f776e6572600082015250565b6000611668602083611422565b915061167382611632565b602082019050919050565b600060208201905081810360008301526116978161165b565b9050919050565b60006040820190506116b3600083018561120a565b6116c06020830184611114565b9392505050565b7f5265656e7472616e637947756172643a207265656e7472616e742063616c6c00600082015250565b60006116fd601f83611422565b9150611708826116c7565b602082019050919050565b6000602082019050818103600083015261172c816116f0565b9050919050565b7f53616c6520456e64656400000000000000000000000000000000000000000000600082015250565b6000611769600a83611422565b915061177482611733565b602082019050919050565b600060208201905081810360008301526117988161175c565b9050919050565b7f427579657220697320746865207a65726f206164647265737300000000000000600082015250565b60006117d5601983611422565b91506117e08261179f565b602082019050919050565b60006020820190508181036000830152611804816117c8565b9050919050565b7f53616c6520746f6b656e20616d6f756e74206973203000000000000000000000600082015250565b6000611841601683611422565b915061184c8261180b565b602082019050919050565b6000602082019050818103600083015261187081611834565b9050919050565b7f4c65737320425553442072656d61696e696e6700000000000000000000000000600082015250565b60006118ad601383611422565b91506118b882611877565b602082019050919050565b600060208201905081810360008301526118dc816118a0565b9050919050565b60006060820190506118f8600083018661120a565b611905602083018561120a565b6119126040830184611114565b949350505050565b6000815190506119298161126a565b92915050565b6000602082840312156119455761194461113e565b5b60006119538482850161191a565b91505092915050565b7f5361666545524332303a204552433230206f7065726174696f6e20646964206e60008201527f6f74207375636365656400000000000000000000000000000000000000000000602082015250565b60006119b8602a83611422565b91506119c38261195c565b604082019050919050565b600060208201905081810360008301526119e7816119ab565b9050919050565b7f4e487b7100000000000000000000000000000000000000000000000000000000600052601160045260246000fd5b6000611a288261110a565b9150611a338361110a565b9250828202611a418161110a565b91508282048414831517611a5857611a576119ee565b5b5092915050565b7f4e487b7100000000000000000000000000000000000000000000000000000000600052601260045260246000fd5b6000611a998261110a565b9150611aa48361110a565b925082611ab457611ab3611a5f565b5b828204905092915050565b6000611aca8261110a565b9150611ad58361110a565b9250828203905081811115611aed57611aec6119ee565b5b92915050565b6000611afe8261110a565b9150611b098361110a565b9250828201905080821115611b2157611b206119ee565b5b92915050565b7f416464726573733a20696e73756666696369656e742062616c616e636520666f60008201527f722063616c6c0000000000000000000000000000000000000000000000000000602082015250565b6000611b83602683611422565b9150611b8e82611b27565b604082019050919050565b60006020820190508181036000830152611bb281611b76565b9050919050565b600081519050919050565b600081905092915050565b60005b83811015611bed578082015181840152602081019050611bd2565b60008484015250505050565b6000611c0482611bb9565b611c0e8185611bc4565b9350611c1e818560208601611bcf565b80840191505092915050565b6000611c368284611bf9565b915081905092915050565b7f416464726573733a2063616c6c20746f206e6f6e2d636f6e7472616374000000600082015250565b6000611c77601d83611422565b9150611c8282611c41565b602082019050919050565b60006020820190508181036000830152611ca681611c6a565b9050919050565b600081519050919050565b6000601f19601f8301169050919050565b6000611cd482611cad565b611cde8185611422565b9350611cee818560208601611bcf565b611cf781611cb8565b840191505092915050565b60006020820190508181036000830152611d1c8184611cc9565b90509291505056fea2646970667358221220367562809d0270428632df219bd547f72204f3f21f49a617482a5867bf20688364736f6c63430008130033",
  "immutableReferences": {},
  "source": "// SPDX-License-Identifier: MIT\r\n\r\npragma solidity ^0.8.19;\r\n\r\nimport \"@openzeppelin/contracts/token/ERC20/IERC20.sol\";\r\nimport \"@openzeppelin/contracts/token/ERC20/utils/SafeERC20.sol\";\r\nimport \"@openzeppelin/contracts/security/ReentrancyGuard.sol\";\r\nimport \"@openzeppelin/contracts/access/Ownable.sol\";\r\nimport \"@openzeppelin/contracts/utils/Context.sol\";\r\nimport \"@openzeppelin/contracts/utils/math/SafeMath.sol\";\r\n\r\ncontract Swap is Context, ReentrancyGuard, Ownable {\r\n    using SafeMath for uint256;\r\n    using SafeERC20 for IERC20;\r\n\r\n    IERC20 private _token;\r\n    address payable private _wallet;\r\n    uint256 private _rate;\r\n    uint256 private _busdSold;\r\n    uint256 private _fees;\r\n    bool private _end;\r\n    IERC20 BUSD;\r\n    // IERC20 BUSD = IERC20(0xe9e7CEA3DedcA5984780Bafc599bD69ADd087D56); //Mainnet\r\n    // IERC20 BUSD = IERC20(0xE0dFffc2E01A7f051069649aD4eb3F518430B6a4); // Testnet\r\n\r\n    event BUSDExchanged(address indexed beneficiary, uint256 busdAmount);\r\n    event RateChanged(uint256 rate);\r\n\r\n    constructor(address busd_, address erc, address wallet_) {\r\n        BUSD = IERC20(busd_); \r\n        _rate = 10;\r\n        _wallet = payable(wallet_);\r\n        _token = IERC20(erc);\r\n        _fees = 20;\r\n        _end = false;\r\n    }\r\n\r\n    function swapToBUSD(uint256 amount) public nonReentrant {\r\n        address beneficiary = _msgSender();\r\n        require(amount != 0, \"Amount is 0\");\r\n        require(_token.balanceOf(beneficiary) >= amount, \"Not Enough Balance\");\r\n        require(\r\n            _token.allowance(beneficiary, address(this)) >= amount,\r\n            \"Not Enough Allowance\"\r\n        );\r\n        uint256 busdAmount = _getBusdAmount(amount);\r\n        _preValidatePurchase(beneficiary, busdAmount);\r\n        _token.safeTransferFrom(beneficiary, address(this), amount);\r\n        _processPurchase(beneficiary, busdAmount);\r\n        emit BUSDExchanged(beneficiary, busdAmount);\r\n        forwardBUSD();\r\n    }\r\n\r\n    function _getBusdAmount(uint256 amount) internal view returns (uint256) {\r\n        return amount.mul(_rate).div(100);\r\n    }\r\n\r\n    function _preValidatePurchase(address beneficiary, uint256 tokens)\r\n        internal\r\n        view\r\n    {\r\n        require(!_end, \"Sale Ended\");\r\n        require(beneficiary != address(0), \"Buyer is the zero address\");\r\n        require(tokens != 0, \"Sale token amount is 0\");\r\n        require(remainingBusd() >= tokens, \"Less BUSD remaining\");\r\n    }\r\n\r\n    function _processPurchase(address beneficiary, uint256 busdAmount)\r\n        internal\r\n    {\r\n        _deliverBUSD(beneficiary, busdAmount.sub(busdAmount.mul(_fees).div(10000)));\r\n    }\r\n\r\n    function _deliverBUSD(address beneficiary, uint256 busdAmount) internal {\r\n        BUSD.safeTransferFrom(_wallet, beneficiary, busdAmount);\r\n        _busdSold = _busdSold.add(busdAmount);\r\n    }\r\n\r\n    function forwardBUSD() public {\r\n        BUSD.safeTransfer(_wallet, BUSD.balanceOf(address(this)));\r\n    }\r\n\r\n    function token() public view returns (IERC20) {\r\n        return _token;\r\n    }\r\n\r\n    function wallet() public view returns (address payable) {\r\n        return _wallet;\r\n    }\r\n\r\n    function rate() public view returns (uint256) {\r\n        return _rate;\r\n    }\r\n\r\n    function setRate(uint256 r) public onlyOwner {\r\n        _rate = r;\r\n        emit RateChanged(_rate);\r\n    }\r\n\r\n    function saleEnded() public view returns (bool) {\r\n        return _end;\r\n    }\r\n\r\n    function setEnd(bool end) external onlyOwner {\r\n        _end = end;\r\n    }\r\n    function fees() public view returns (uint256) {\r\n        return _fees;\r\n    }\r\n\r\n    function setFees(uint256 fees_) external onlyOwner {\r\n        _fees = fees_;\r\n    }\r\n\r\n    function tokensSold() public view returns (uint256) {\r\n        return _busdSold;\r\n    }\r\n\r\n    function remainingBusd() public view returns (uint256) {\r\n        return BUSD.allowance(_wallet, address(this));\r\n    }\r\n}\r\n",
  "sourcePath": "C:\\Users\\suraj\\Documents\\code\\presale-contract\\contracts\\Swap.sol",
  "compiler": {
    "name": "solc",
    "version": "0.8.19+commit.7dd6d404.Emscripten.clang"
  },
  "schemaVersion": "3.4.13",
  "updatedAt": "2023-03-05T10:50:56.039Z",
  "devdoc": {
    "kind": "dev",
    "methods": {
      "owner()": {
        "details": "Returns the address of the current owner."
      },
      "renounceOwnership()": {
        "details": "Leaves the contract without owner. It will not be possible to call `onlyOwner` functions anymore. Can only be called by the current owner. NOTE: Renouncing ownership will leave the contract without an owner, thereby removing any functionality that is only available to the owner."
      },
      "transferOwnership(address)": {
        "details": "Transfers ownership of the contract to a new account (`newOwner`). Can only be called by the current owner."
      }
    },
    "version": 1
  },
  "userdoc": {
    "kind": "user",
    "methods": {},
    "version": 1
  }
}